:100000000C9462000C948A000C948A000C948A0070
:100010000C948A000C948A000C948A000C948A0038
:100020000C948A000C948A000C948A000C948A0028
:100030000C948A000C948A000C948A000C948A0018
:100040000C94D7030C948A000C94A5030C947F03A2
:100050000C948A000C948A000C948A000C948A00F8
:100060000C948A000C948A000000000024002700F1
:100070002A0000000000250028002B0000000008D6
:10008000000201000003040700000000000000005F
:1000900000000000230026002900040404040404D6
:1000A0000404020202020202030303030303010227
:1000B00004081020408001020408102001020408F6
:1000C0001020210411241FBECFEFD8E0DEBFCDBF2A
:1000D00011E0A0E0B1E0ECEDF1E102C005900D927D
:1000E000A432B107D9F721E0A4E2B1E001C01D922A
:1000F000AE3DB207E1F710E0C2E6D0E004C02197C0
:10010000FE010E94E608C136D107C9F70E948604A5
:100110000C94EC080C9400008091D001E091D10186
:10012000F091D201F8949181982B91832281382FFC
:10013000309523232283A7E0B0E01197F1F7918156
:1001400093239183A3E2B0E01197F1F79081789423
:10015000EFECF0E03197F1F7982381E009F480E0CB
:1001600008959091D001E091D101F091D201292F11
:10017000209580FF14C0F89482818223828381813C
:10018000892B8183A3E2B0E01197F1F78281982B4C
:100190009283789487ED90E00197F1F70895F894B1
:1001A0008281822382838181892B8183AFEFB0E0BA
:1001B0001197F1F78281982B928378948FE090E0E9
:1001C000EBCFFF920F931F93CF93DF93F82E062F61
:1001D000C8E0D0E011E081E09F2D912309F480E098
:1001E0000E94B100110F2197B1F7011113C0F894CB
:1001F000E091D101F091D20191818091D00180955F
:1002000098239183E091D101F091D20192818923C9
:1002100082837894DF91CF911F910F91FF90089581
:100220000F931F93CF93DF938C0160E085E50E94CD
:10023000E100E801085F1F4F60E089910E94E10042
:10024000C017D107C9F7DF91CF911F910F91089582
:100250008091D001E091D101F091D201F894918187
:10026000282F20959223918378943DE743E050E036
:10027000315029F1DA011197F1F790819823C1F3F8
:10028000F8949281922392839181982B9183789410
:10029000ABE7B7E01197F1F7F8949181922391833E
:1002A000A3E1B1E01197F1F79081982381E009F083
:1002B00080E07894E3E6F6E03197F1F7089580E086
:1002C0000895AF92BF92CF92DF92EF92FF920F9379
:1002D0001F93CF93DF936C017B018B01040F151FDC
:1002E000EB015E01AE18BF08C017D10759F0699144
:1002F000D601ED91FC910190F081E02DC6010995A8
:10030000892B79F7C501DF91CF911F910F91FF9054
:10031000EF90DF90CF90BF90AF900895FC01538D88
:10032000448D252F30E0842F90E0821B930B5417CF
:1003300010F0CF96089501970895FC01918D828D5C
:10034000981761F0A28DAE0FBF2FB11D5D968C91F5
:10035000928D9F5F9F73928F90E008958FEF9FEF34
:100360000895FC01918D828D981731F0828DE80FF0
:10037000F11D858D90E008958FEF9FEF0895FC01AA
:10038000918D228D892F90E0805C9F4F821B910977
:100390008F739927089583E391E00E94BF0121E0C4
:1003A000892B09F420E0822F089580E090E0892BCA
:1003B00029F00E94CB0181110C9400000895FC01EA
:1003C000A48DA80FB92FB11DA35ABF4F2C91848DB6
:1003D00090E001968F739927848FA689B7892C9313
:1003E000A089B1898C91837080648C93938D848D66
:1003F000981306C00288F389E02D80818F7D808369
:100400000895EF92FF920F931F93CF93DF93EC0128
:1004100081E0888F9B8D8C8D98131AC0E889F989AB
:10042000808185FF15C09FB7F894EE89FF896083AE
:10043000E889F98980818370806480839FBF81E02F
:1004400090E0DF91CF911F910F91FF90EF90089571
:10045000F62E0B8D10E00F5F1F4F0F731127E02E4C
:100460008C8D8E110CC00FB607FCFACFE889F98984
:10047000808185FFF5CFCE010E94DF01F1CFEB8DAA
:10048000EC0FFD2FF11DE35AFF4FF0829FB7F89458
:100490000B8FEA89FB8980818062CFCFCF93DF9376
:1004A000EC01888D8823B9F0AA89BB89E889F9898C
:1004B0008C9185FD03C0808186FD0DC00FB607FCC1
:1004C000F7CF8C9185FFF2CF808185FFEDCFCE01F4
:1004D0000E94DF01E9CFDF91CF91089590E0FC0108
:1004E000E458FF4F2491FC01E255FF4F3491FC0189
:1004F000E656FF4FE491EE23C9F0222339F0233072
:1005000001F1A8F4213019F1223029F1F0E0EE0FC9
:10051000FF1FEE58FF4FA591B4918FB7F894EC915F
:10052000611126C030953E233C938FBF089527303C
:10053000A9F02830C9F0243049F7809180008F7DE0
:1005400003C0809180008F7780938000DFCF84B5D7
:100550008F7784BDDBCF84B58F7DFBCF8091B000DA
:100560008F778093B000D2CF8091B0008F7DF9CF8C
:100570003E2BDACFCF93DF9390E0FC01E255FF4FA3
:10058000249186569F4FFC0184918823D1F090E0FE
:10059000880F991FFC01E859FF4FA591B491FC0108
:1005A000EE58FF4FC591D49161110EC09FB7F894DA
:1005B0008C91E22FE0958E238C932881E223E883AF
:1005C0009FBFDF91CF9108958FB7F894EC91E22B04
:1005D000EC938FBFF6CF3FB7F894809125019091AF
:1005E0002601A0912701B091280126B5A89B05C03E
:1005F0002F3F19F00196A11DB11D3FBFBA2FA92FA2
:10060000982F8827BC01CD01620F711D811D911D9E
:1006100042E0660F771F881F991F4A95D1F708950A
:100620008F929F92AF92BF92CF92DF92EF92FF9202
:100630004B015C010E94EB026B017C010E94EB020A
:100640006C197D098E099F09683E734081059105EB
:10065000A8F321E0821A9108A108B10888EEC80E1B
:1006600083E0D81EE11CF11C81149104A104B104A3
:1006700029F7FF90EF90DF90CF90BF90AF909F90C1
:100680008F900895FF920F931F93CF93DF93F82ECF
:10069000EB0160E084E00E946E02CE5FDE4F0881D5
:1006A000C7E0D0E010E0B8010C2E02C07595679548
:1006B0000A94E2F7617085E00E946E0261E083E0D7
:1006C0000E946E0260E083E00E946E02219758F75C
:1006D00061E084E00E946E0260E08F2D0E946E0255
:1006E00065E070E080E090E00E94100361E08F2DF3
:1006F000DF91CF911F910F91FF900C946E021F928A
:100700000F920FB60F9211242F933F934F935F9345
:100710006F937F938F939F93AF93BF93EF93FF93C9
:1007200083E391E00E94DF01FF91EF91BF91AF91D0
:100730009F918F917F916F915F914F913F912F91F9
:100740000F900FBE0F901F9018951F920F920FB62B
:100750000F9211242F938F939F93EF93FF93E09128
:100760004301F09144018081E0914901F0914A01F7
:1007700082FD1BC0908180914C018F5F8F7320910F
:100780004D01821741F0E0914C01F0E0ED5CFE4F2D
:10079000958F80934C01FF91EF919F918F912F91B5
:1007A0000F900FBE0F901F9018958081F4CF1F926D
:1007B0000F920FB60F9211242F933F938F939F9315
:1007C000AF93BF938091290190912A01A0912B01B1
:1007D000B0912C013091240123E0230F2D3758F5DF
:1007E0000196A11DB11D20932401809329019093AE
:1007F0002A01A0932B01B0932C01809125019091A7
:100800002601A0912701B09128010196A11DB11DDB
:100810008093250190932601A0932701B09328018E
:10082000BF91AF919F918F913F912F910F900FBEEC
:100830000F901F90189526E8230F0296A11DB11D59
:10084000D2CFE3E3F1E01382128288EE93E0A0E0DE
:10085000B0E084839583A683B78382E191E091839E
:10086000808385EC90E09587848784EC90E097877F
:10087000868780EC90E0918B808B81EC90E0938B6D
:10088000828B82EC90E0958B848B86EC90E0978B4A
:10089000868B118E128E138E148E60E087E00E947C
:1008A000BA02E5EBF0E0E491A0EDB1E0EC93E1EA0F
:1008B000F0E0E491F0E0EE0FFF1FE057FF4F85916D
:1008C000949112969C938E9311971B961C921B9752
:1008D0001D961C921D971C961C921C971A961C9292
:1008E0001A9719961C92199718961C921897179692
:1008F0001C92179716961C92169715961C92159790
:1009000014961C92149713961C920895CF93DF931C
:10091000CDB7DEB7AD970FB6F894DEBF0FBECDBF33
:10092000789484B5826084BD84B5816084BD85B5CA
:10093000826085BD85B5816085BD80916E008160D6
:1009400080936E001092810080918100826080937C
:10095000810080918100816080938100809180007E
:100960008160809380008091B10084608093B100A9
:100970008091B00081608093B00080917A008460A3
:1009800080937A0080917A00826080937A008091CF
:100990007A00816080937A0080917A0080688093E9
:1009A0007A001092C100E0914301F091440182E08D
:1009B0008083E0913F01F09140011082E09141017C
:1009C000F09142018FEC808310924B01E09147013E
:1009D000F091480186E08083E0914501F091460165
:1009E000808180618083E0914501F09146018081A2
:1009F00088608083E0914501F091460180818068A4
:100A00008083E0914501F091460180818F7D808354
:100A100061E086E00E94BA0260E086E00E946E0219
:100A200060E08EE00E94BA0261E083E00E94BA02B8
:100A300061E084E00E94BA0261E085E00E94BA02AF
:100A400061E088E00E94BA0261E088E00E946E02E4
:100A500061E089E00E94BA0261E089E00E946E02D2
:100A600061E08AE00E94BA0261E08AE00E946E02C0
:100A700061E08BE00E94BA0261E08BE00E946E02AE
:100A80009E01265D3F4F3BA72AA7CE010A969DA750
:100A90008CA72AE0822E912CA12CB12C412C34E081
:100AA000532E612C712C2FB7F894809129019091CD
:100AB0002A01A0912B01B0912C012FBF40912D0153
:100AC00050912E0160912F0170913001841B950B84
:100AD000A60BB70B893E9340A105B10508F457C09A
:100AE0002FB7F8948091290190912A01A0912B01B0
:100AF000B0912C012FBF80932D0190932E01A093D4
:100B00002F01B09330018091DD01811124C00E943A
:100B10002801882301F160E080EF0E94E10001E0FC
:100B2000E12CC12C11E00E948C00F82E0E948C0058
:100B3000F1E0FF12C8C0813009F0E4C0113458F070
:100B4000C092DB01C11003C031E03093DD01809120
:100B5000D3018111EDC01092DB011092DD011092E2
:100B6000DC011092DA011092D9011092D801109292
:100B7000D7011092D6011092D5011092D401109293
:100B8000D30162E370E080E090E00E941003809166
:100B90000001909101019093320180933101C09046
:100BA0003101D09032010D2C000CEE08FF08F7FE49
:100BB00047C16DE283E391E00E94010222273327BF
:100BC000A9012C193D094E095F0919A28E010F5D7B
:100BD0001F4FCA01B901A50194010E945507605D2C
:100BE000F80162938F01211531054105510589F7FF
:100BF0000115110561F001900020E9F73197AF016F
:100C0000401B510BB80183E391E00E94610142E077
:100C100050E060E271E083E391E00E946101F0E462
:100C2000F0937C0080917A00806480937A008091B8
:100C30007A0086FDFCCF80917800A0917900BA2FD0
:100C4000A82F23E130E00E94CB08A30192010E946B
:100C5000360789019A01025F1F4F2F4F3F4F809146
:100C600031019091320161E0801791070CF060E052
:100C700086E00E946E02C8016AE070E00E94B70838
:100C80008C0188E090E00E944203B80189E090E086
:100C90000E9442036BE070E08AE090E00E94420311
:100CA0006AE070E08BE090E00E94420320E030E0D8
:100CB000232B09F4F8CE0E94CB01882309F4F3CE4C
:100CC0000E940000F0CEEE2DF0E0F81211C08091ED
:100CD000DB011817A8F4DF01A053BE4F13968C91C7
:100CE000802381F4F12C193010F41093DC01C12E13
:100CF000E053FE4F8381902F9095892383830BC00F
:100D00008113F0CFEE2DF0E0E053FE4F8381802B76
:100D10008383FF24F3948F2D0E94B1001F5F000F87
:100D200011F4E39401E027E02E1508F0FCCE06CF85
:100D3000A3EDB1E0FE01B2968F018D9181938AA55A
:100D40009BA5E817F907C9F78AA1823209F469C09F
:100D5000883209F466C022242394803109F017CF29
:100D60000E942801C8010E94100161E084E40E94F1
:100D7000E10068EE73E080E090E00E9410030E94C2
:100D80002801C8010E94100160E08EEB0E94E10082
:100D90008E010F5F1F4F98E0E92EF12CC12C3324F8
:100DA00033940E948C008111C328330C91E0E91A1E
:100DB000F108B9F7F801C1928F012CA53DA5E21702
:100DC000F30749F769817A81222069F183E0660F90
:100DD000771F8A95E1F78885803141F48F81ECE0B7
:100DE000F0E0E81BF109607F6E0F7F1F072E000CFB
:100DF000880B990B0E94BE0720E030E040E85DE3DD
:100E00000E9422080E94860770933201609331018C
:100E1000161617060CF0BBCE70930101609300010B
:100E2000BECE212C9DCF8D81807611F4687FDECFE0
:100E3000803211F46C7FDACF8034C1F66E7FD6CF6A
:100E4000A701960119A28E010F5D1F4FCA01B901BA
:100E5000A50194010E945507605DF80162938F011E
:100E6000211531054105510589F7C2CE052E97FBA5
:100E70001EF400940E944D0757FD07D00E945507AD
:100E800007FC03D04EF40C944D07509540953095D7
:100E900021953F4F4F4F5F4F0895909580957095E6
:100EA00061957F4F8F4F9F4F0895A1E21A2EAA1B85
:100EB000BB1BFD010DC0AA1FBB1FEE1FFF1FA2170A
:100EC000B307E407F50720F0A21BB30BE40BF50B07
:100ED000661F771F881F991F1A9469F76095709590
:100EE000809590959B01AC01BD01CF010895A29F13
:100EF000B001B39FC001A39F700D811D1124911DEE
:100F0000B29F700D811D1124911D08950E948D07BF
:100F10006894B1110C941C0808950E94010888F08F
:100F20009F5798F0B92F9927B751B0F0E1F0660FAD
:100F3000771F881F991F1AF0BA95C9F714C0B130EE
:100F400091F00E941B08B1E008950C941B08672FD4
:100F5000782F8827B85F39F0B93FCCF3869577951D
:100F60006795B395D9F73EF4909580957095619506
:100F70007F4F8F4F9F4F0895E89409C097FB3EF431
:100F800090958095709561957F4F8F4F9F4F9923D6
:100F9000A9F0F92F96E9BB279395F6958795779554
:100FA0006795B795F111F8CFFAF4BB0F11F460FF14
:100FB0001BC06F5F7F4F8F4F9F4F16C0882311F06C
:100FC00096E911C0772321F09EE8872F762F05C080
:100FD000662371F096E8862F70E060E02AF09A951B
:100FE000660F771F881FDAF7880F9695879597F910
:100FF000089557FD9058440F551F59F05F3F71F009
:101000004795880F97FB991F61F09F3F79F087956F
:101010000895121613061406551FF2CF4695F1DFF8
:1010200008C0161617061806991FF1CF8695710588
:10103000610508940895E894BB2766277727CB01BC
:1010400097F908950E9435080C94A6080E94980804
:1010500038F00E949F0820F0952311F00C948F081F
:101060000C94950811240C941C080E94F90770F345
:10107000959FC1F3950F50E0551F629FF001729F3D
:10108000BB27F00DB11D639FAA27F00DB11DAA1F4C
:10109000649F6627B00DA11D661F829F2227B00D99
:1010A000A11D621F739FB00DA11D621F839FA00D24
:1010B000611D221F749F3327A00D611D231F849F74
:1010C000600D211D822F762F6A2F11249F575040CB
:1010D0009AF0F1F088234AF0EE0FFF1FBB1F661F46
:1010E000771F881F91505040A9F79E3F510580F00F
:1010F0000C948F080C941C085F3FE4F3983ED4F3E3
:10110000869577956795B795F795E7959F5FC1F7B2
:10111000FE2B880F911D9695879597F9089597F95D
:101120009F6780E870E060E008959FEF80EC08958D
:1011300000240A94161617061806090608950024B6
:101140000A9412161306140605060895092E039430
:10115000000C11F4882352F0BB0F40F4BF2B11F4A4
:1011600060FF04C06F5F7F4F8F4F9F4F089597FBC5
:10117000072E16F4009407D077FD09D00E94D208FC
:1011800007FC05D03EF4909581959F4F089570958A
:1011900061957F4F08950E947707B7FF0895821BDE
:1011A000930B0895AA1BBB1B51E107C0AA1FBB1FCD
:1011B000A617B70710F0A61BB70B881F991F5A95E3
:1011C000A9F780959095BC01CD010895EE0FFF1F02
:0C11D0000590F491E02D0994F894FFCFF5
:1011DC000F273F065B4F666D7D077F6F39630000FD
:1011EC000000010261018E014E02BF019D01B1019F
:0411FC000D0A0000D8
:107E0000112484B714BE81FFF0D085E080938100F7
:107E100082E08093C00088E18093C10086E0809377
:107E2000C20080E18093C4008EE0C9D0259A86E02C
:107E300020E33CEF91E0309385002093840096BBD3
:107E4000B09BFECF1D9AA8958150A9F7CC24DD24C4
:107E500088248394B5E0AB2EA1E19A2EF3E0BF2EE7
:107E6000A2D0813461F49FD0082FAFD0023811F036
:107E7000013811F484E001C083E08DD089C08234E0
:107E800011F484E103C0853419F485E0A6D080C0E4
:107E9000853579F488D0E82EFF2485D0082F10E0AE
:107EA000102F00270E291F29000F111F8ED06801E7
:107EB0006FC0863521F484E090D080E0DECF843638
:107EC00009F040C070D06FD0082F6DD080E0C81688
:107ED00080E7D80618F4F601B7BEE895C0E0D1E017
:107EE00062D089930C17E1F7F0E0CF16F0E7DF06D8
:107EF00018F0F601B7BEE89568D007B600FCFDCFD4
:107F0000A601A0E0B1E02C9130E011968C91119780
:107F100090E0982F8827822B932B1296FA010C0160
:107F200087BEE89511244E5F5F4FF1E0A038BF0790
:107F300051F7F601A7BEE89507B600FCFDCF97BE46
:107F4000E89526C08437B1F42ED02DD0F82E2BD052
:107F50003CD0F601EF2C8F010F5F1F4F84911BD097
:107F6000EA94F801C1F70894C11CD11CFA94CF0C13
:107F7000D11C0EC0853739F428D08EE10CD085E9AC
:107F80000AD08FE07ACF813511F488E018D01DD067
:107F900080E101D065CF982F8091C00085FFFCCF94
:107FA0009093C60008958091C00087FFFCCF809118
:107FB000C00084FD01C0A8958091C6000895E0E648
:107FC000F0E098E1908380830895EDDF803219F02E
:107FD00088E0F5DFFFCF84E1DECF1F93182FE3DFCA
:107FE0001150E9F7F2DF1F91089580E0E8DFEE27F6
:047FF000FF270994CA
:027FFE00040479
:0400000300007E007B
:00000001FF
